:020000040800F2
:10000000A80600209D010008D90E0008DB0E00089C
:10001000DF0E0008E30E0008E70E000800000000F5
:10002000000000000000000000000000EB0E0008CF
:10003000ED0E000800000000EF0E0008F10E0008B1
:10004000B7010008B7010008B7010008B7010008B0
:10005000B7010008B7010008B7010008B7010008A0
:10006000B7010008B7010008B7010008B701000890
:10007000B7010008B7010008B7010008B701000880
:10008000B7010008B7010008B7010008B701000870
:10009000B7010008B7010008B7010008B701000860
:1000A000B7010008B7010008B7010008B701000850
:1000B000B7010008B7010008B7010008B701000840
:1000C000B7010008B7010008B7010008B701000830
:1000D000B7010008F30E0008B7010008B7010008D7
:1000E000B7010008B7010008B701000800F002F8E6
:1000F00000F044F80AA090E8000C82448344AAF17E
:100100000107DA4501D100F039F8AFF2090EBAE87B
:100110000F0013F0010F18BFFB1A43F0010318473B
:10012000D4140000F4140000103A24BF78C878C139
:10013000FAD8520724BF30C830C144BF04680C60ED
:10014000704700000023002400250026103A28BF35
:1001500078C1FBD8520728BF30C148BF0B60704739
:10016000632901F0C881732901F0CD810020704717
:100170001FB501F038FA1FBD10B510BD01F0F9F937
:100180001146FFF7F5FF00F08FFE01F017FA03B4F8
:10019000FFF7F2FF03BC01F01FFA00000948804797
:1001A00009480047FEE7FEE7FEE7FEE7FEE7FEE759
:1001B000FEE7FEE7FEE7FEE704480549054A064B71
:1001C00070470000A5020008ED000008A80000200C
:1001D000A8060020A8020020A8020020002100207C
:1001E000674A126842F48032654B1A6000BF644A65
:1001F000126802F40030491C10B9B1F5A06FF6D1B5
:100200005F4A126812F4003F01D0012000E0002094
:10021000012842D15B4A126842F01002594B1A6021
:100220001A46126822F003021A601A46126842F057
:1002300002021A60524A5268514B5A601A4652687A
:100240005A601A46526842F480625A601A465268EE
:1002500022F47C125A601A46526842F4E8125A603C
:100260001A46126842F080721A6000BF444A12684F
:1002700012F0007FFAD0424A526822F00302404B4B
:100280005A601A46526842F002025A6000BF3C4A65
:10029000526802F00C02082AF9D1704710B5FFF736
:1002A0009DFF10BD10B53648006840F0010034498C
:1002B00008600846406834490840314948600846AB
:1002C0000068324908402E4908600846006820F45A
:1002D000802008600846406820F4FE0048604FF423
:1002E0001F008860FFF7DAFF4FF0006028490860C0
:1002F00010BD10B5002100200022214B5B6803F0E7
:100300000C0121B1042906D0082928D107E0214B8E
:10031000214C236027E01F4B1F4C236023E0184B28
:100320005B6803F47010164B5B6803F480320223A1
:1003300003EB904022B9194B4343174C23600DE067
:100340000F4B5B6813F4003F04D0144B4343124C33
:10035000236003E00F4B43430F4C236003E00D4B3E
:100360000D4C236000BF00BF054B5B68C3F3031354
:100370000B4CE15C084B1B68CB40074C236010BD65
:1003800000100240002002400000FFF8FFFFF6FED0
:1003900008ED00E000127A000000002000093D0096
:1003A0000400002010B50446CA48844208D1012147
:1003B000042000F025FB0021042000F021FB46E092
:1003C000C548844208D10121082000F019FB002112
:1003D000082000F015FB3AE0C048844208D1012112
:1003E000102000F00DFB0021102000F009FB2EE092
:1003F000BB48844208D10121202000F001FB0021EC
:10040000202000F0FDFA22E0B648844208D1012104
:10041000402000F0F5FA0021402000F0F1FA16E04B
:10042000B148844208D10121802000F0E9FA00217E
:10043000802000F0E5FA0AE0AC48844207D10121AF
:10044000801500F0DDFA0021A01500F0D9FA10BDEA
:1004500010B50121084600F0D3FA0021012000F078
:10046000CFFA10BD2DE9F0410246002500260020FC
:1004700000230024002791F803C00CF00F0591F829
:1004800003C01CF0100F03D091F802C04CEA050520
:10049000B1F800C01CF0FF0F31D0146800202BE031
:1004A0004FF0010C0CFA00F3B1F800C00CEA03069F
:1004B0009E4220D183004FF00F0C0CFA03F7BC438F
:1004C00005FA03FC4CEA040491F803C0BCF1280FC0
:1004D00006D14FF0010C0CFA00FCC2F814C00AE07F
:1004E00091F803C0BCF1480F05D14FF0010C0CFA94
:1004F00000FCC2F810C0401C0828D1D31460B1F829
:1005000000C0BCF1FF0F34DD546800202EE000F184
:10051000080C4FF0010808FA0CF3B1F800C00CEA1F
:1005200003069E4221D183004FF00F0C0CFA03F713
:10053000BC4305FA03FC4CEA040491F803C0BCF187
:10054000280F05D100F1080C08FA0CF8C2F8148045
:1005500091F803C0BCF1480F07D100F1080C4FF02F
:10056000010808FA0CF8C2F81080401C0828CED305
:100570005460BDE8F0814FF6FF7101800221817067
:100580000421C17070470246002093680B4201D0DD
:10059000012000E0002070470146886880B2704763
:1005A00002460020D3680B4201D0012000E0002069
:1005B00070470146C86880B2704701617047416169
:1005C00070470AB1016100E041617047C160704746
:1005D0004FF480320A43826181618261826982695B
:1005E000704702460020424B18684FF6807318404F
:1005F00040EA021008433E4B186070473D49C8610D
:100600007047F0B50A46002300240021002500F0C1
:100610000046B6F1004F02D1354EF16901E0344E8B
:100620007168C0F3034583B200F44016B6F5401F6D
:1006300008D121F070612E4E766826F070662C4F3E
:100640007E6012E000F48016B6F5801F06D1032606
:1006500006FA05F4A14341F0706106E0460D36014B
:1006600003FA06F6B14341F0706122B1460D36013E
:1006700003FA06F6314300F00046B6F1004F02D10E
:100680001B4EF16101E01A4E7160F0BD30B50022E1
:100690008B071C0F0F2303FA04F2154B08338C1041
:1006A00053F824309343124C08348D1044F825300D
:1006B00023468C1053F824308C07240F00FA04F4DE
:1006C00023430B4C08348D1044F8253030BD0A49C3
:1006D0000860704700080140000C01400010014014
:1006E0000014014000180140001C0140002001409E
:1006F0000000014000002042DC002042DC4800688D
:1007000040F00100DA49086008464068D9490840CD
:10071000D749486008460068D7490840D44908606E
:100720000846006820F4802008600846406820F4ED
:10073000FE0048604FF41F0088607047CC4909688C
:1007400021F48031CA4A11601146096821F48021E0
:100750001160B0F5803F03D0B0F5802F0ED106E0D8
:10076000C349096841F48031C14A116007E0C049BA
:10077000096841F4A021BE4A116000E000BF00BF3B
:10078000704710B501460022002300204A11012ABB
:1007900002D1B74C236806E0022A02D1B44C236A86
:1007A00001E0B34C636A01F01F02012494401C4233
:1007B00001D0012000E0002010BD70B5002400250C
:1007C000002600BF3120FFF7DCFF0646641CB4F5AD
:1007D000A06F01D0002EF5D03120FFF7D2FF08B175
:1007E000012500E00025284670BD01460020A04AF2
:1007F000106820F0F80040EAC100106070479F497F
:100800000860704702460020994B586820F47C101D
:1008100042EA01031843964B5860704797490866AF
:10082000704701460020924A506820F003000843B8
:10083000506070478E48406800F00C0070470146D9
:1008400000208B4A506820F0F00008435060704749
:1008500001460020864A506820F4E060084350605A
:10086000704701460020824A506820F4605040EAF8
:10087000C1005060704729B17D4A527A02437C4BD7
:100880005A7206E07A4A527AC343DBB21A40784B76
:100890005A7270477A490860704701460020744ACE
:1008A000506820F440400843506070470021754A6A
:1008B00011706F4A82F82010012802D0042808D154
:1008C00003E001216F4A117004E005216D4A1170A7
:1008D00000E000BF00BF70476B4908607047644983
:1008E000096A0143624A11627047674944390860E6
:1008F000704730B500210022002400235C4D6D6854
:1009000005F00C0121B1042905D0082923D105E007
:100910005E4D056022E05D4D05601FE0544D6D6841
:1009200005F47012524D6D6805F48034022505EB14
:1009300092421CB9564D554305600BE04C4D6D6815
:1009400015F4003F03D0524D5543056002E04F4D72
:100950005543056002E04D4D056000BF00BF444DAA
:100960006D6805F0F00109094A4D6B5C0568DD40D2
:1009700045603F4D6D6805F4E061090A454D6B5CCB
:100980004568DD4085603A4D6D6805F46051C90ADF
:10099000404D6B5C4568DD40C560354D6D6805F4C4
:1009A0004041890B3C4D6B5CC568B5FBF3F50561B7
:1009B00030BD29B12E4A526902432D4B5A6104E0E1
:1009C0002B4A526982432A4B5A61704729B1284AFF
:1009D00092690243264B9A6104E0254A9269824358
:1009E000234B9A61704729B1214AD2690243204BB7
:1009F000DA6104E01E4AD26982431D4BDA61704716
:100A000029B11B4AD2680243194BDA6004E0184A44
:100A1000D2688243164BDA60704729B1144A1269D2
:100A20000243134B1A6104E0114A12698243104BCE
:100A30001A61704714494039086070470F49C8640B
:100A400070470B49C87170470948406A40F0807090
:100A500007494862704701460020054A92680A42E9
:100A600001D0012000E000207047014988727047E2
:100A7000001002400000FFF8FFFFF6FE00004242B7
:100A8000D8004242201002408004424200127A0004
:100A900000093D00140000202400002010B5044689
:100AA000FC48844209D101218803FFF7A9FF0021F6
:100AB0004FF48040FFF7A4FF32E0F748844209D1A9
:100AC00001214804FFF7A9FF00214FF40030FFF790
:100AD000A4FF25E0F148844209D101218804FFF7F1
:100AE0009CFF00214FF48020FFF797FF18E0EC48AF
:100AF000844209D10121C804FFF78FFF00214FF480
:100B00000020FFF78AFF0BE0E648844208D101216C
:100B10000805FFF782FF00214FF48010FFF77DFFEB
:100B200010BD2DE9F04786B005460E460024A246CA
:100B300000BFA1460027B08900B100BF2F462C8A14
:100B40004CF6FF700440F08804432C82AC894EF6CA
:100B5000F3100440B0883189084371890843044385
:100B6000AC81AC8A4FF6FF400440B0890443AC82AC
:100B700001A8FFF7BEFEC748874202D1DDF810A0EA
:100B800001E0DDF80CA0A88910F4004F08D00AEBB2
:100B9000CA0000EB0A1031684900B0FBF1F807E029
:100BA0000AEBCA0000EB0A1031688900B0FBF1F8CB
:100BB0006420B8FBF0F004012009642101FB1089D6
:100BC000A88910F4004F08D0322000EBC900B0FB18
:100BD000F1F000F00700044308E0322000EB0910B8
:100BE0006421B0FBF1F000F00F0004432C8106B04B
:100BF000BDE8F0874FF41651016000218180C1806B
:100C000001810C21418100218181704710B502468C
:100C10000020108A4FF2FF0318400B884C882343B2
:100C20008C882343CC8823431843108210BD0021B5
:100C3000018041808180C180704721B1828942F466
:100C40000052828104E082894DF6FF731A4082814E
:100C50007047F0B503460024002600250020A1F5CA
:100C600010676A3F00D100BF1846C1F3421401F07B
:100C70001F06012707FA06F5012C01D10C3004E00C
:100C8000022C01D1103000E014301AB107682F4354
:100C9000076002E00768AF430760F0BD10B51AB106
:100CA000838A0B43838204E0838ACC43A4B223402B
:100CB000838210BD028A4FF6F0731A400282028AC4
:100CC0000A430282704782894FF2FF731A40828181
:100CD00082890A438281704721B1828942F00202EF
:100CE000828104E082894FF6FD731A408281704749
:100CF000028A4FF6DF731A400282028A0A43028296
:100D0000704721B1028A42F48042028204E0028AE2
:100D10004BF6FF731A4002827047C1F308028280CB
:100D2000704701468888C0F308007047818941F008
:100D3000010181817047028BD2B20283028B42EAA9
:100D4000012202837047028B02F47F420283028BEE
:100D50000A430283704721B1828A42F020028282D4
:100D600004E0828A4FF6DF731A408282704721B115
:100D7000828A42F01002828204E0828A4FF6EF7388
:100D80001A408282704721B1828A42F00802828230
:100D900004E0828A4FF6F7731A408282704721B1CD
:100DA000828942F40042828103E08289C2F30E020A
:100DB0008281704721B1828A42F40062828204E01B
:100DC000828A4FF2FF731A4082827047828A4FF6FE
:100DD000FB731A408282828A0A438282704721B161
:100DE000828A42F00202828204E0828A4FF6FD7318
:100DF0001A408282704702460020B1F5007F00D180
:100E000000BF13880B4201D0012000E00020704792
:100E100001F40072B2F5007F00D100BFCA43028026
:100E2000704770B502460024002300250020A1F57C
:100E300010666A3E00D100BFC1F3421501F01F03E6
:100E4000012606FA03F3012D02D19689334006E00C
:100E5000022D02D1168A334001E0968A33400C12EB
:100E6000012606FA04F41688344013B10CB10120AF
:100E700000E0002070BD10B500220023A1F5106431
:100E80006A3C00D100BF0A1201249440A3B2DC43A3
:100E9000048010BD0038014000440040004800407C
:100EA000004C004000500040FFF7FCF900F04AF809
:100EB00000F032F805A1074800F0D2F800BFFEE7C5
:100EC00000E0401E0028FCD1704700002041540D76
:100ED0000A00000000380140704700BFFEE700BF75
:100EE000FEE700BFFEE700BFFEE7704770477047B0
:100EF000704710B500F037F9044605A1204600F010
:100F00008FFA18B908210348FFF759FB10BD0000FC
:100F10004F4B00000008014008B50820ADF8000064
:100F200010208DF8030003208DF802006946044864
:100F3000FFF798FA08210248FFF73FFB08BD0000C1
:100F40000008014000B585B0012144F20400FFF71C
:100F50003DFD4FF40070ADF8100018208DF813001F
:100F600003208DF8120004A99848FFF77BFA4FF48C
:100F70008060ADF8100004208DF8130004A9934898
:100F8000FFF770FA0820ADF8100010208DF813005C
:100F900003208DF8120004A98C48FFF763FA08219A
:100FA0008A48FFF70AFB4FF4165000900020ADF876
:100FB0000400ADF80800ADF80600ADF80C000C20F8
:100FC000ADF80A0069468248FFF7ABFD0121804871
:100FD000FFF733FE012240F225517D48FFF739FE2D
:100FE000252000F01F020121914042094FF0E0232B
:100FF00003EB8202C2F8001100BF05B000BDF0B5DE
:1010000003460D461646002729460A2E03D0002027
:1010100008702846F0BD33B9302001F8010B0020DC
:1010200008702846F6E7002B03DA2D2001F8010BA3
:101030005B4242F210720DE093FBF2F404B937B157
:1010400004F1300001F8010B04FB123301270A20E0
:1010500092FBF0F2002AEFDC002008702846D9E766
:101060000FB470B586B006460CA8019073E00B98DB
:1010700000785C281CD10B98401C0B9000786E28DF
:1010800009D072280FD10D213046FFF746FE0B988C
:10109000401C0B900BE00A213046FFF73EFE0B98F8
:1010A000401C0B9003E00B98401C0B9000BF4BE0E2
:1010B0000B980078252840D10B98401C0B900078A5
:1010C000642818D0732833D1019810C801900BE020
:1010D00021783046FFF721FE00BF40213046FFF760
:1010E0008AFE0028F9D0641C20780028F0D10B98E3
:1010F000401C0B9020E0019820C801900A2202A910
:101100002846FFF77CFF02AC0BE021783046FFF762
:1011100004FE00BF40213046FFF76DFE0028F9D0E5
:10112000641C20780028F0D10B98401C0B9003E041
:101130000B98401C0B9000BF06E00B9810F8011BA9
:101140000B903046FFF7E9FD00BF40213046FFF726
:1011500052FE0028F9D00B980078002887D106B0FD
:1011600070BC5DF814FB30B589B040F225511848C9
:10117000FFF757FE38B31648FFF7D3FDC4B20D2C66
:1011800008D00A2C06D02346124A13A1104600F0BC
:1011900027F817E0202101A800F01AF90D4800F007
:1011A00091F805462A460B4901A800F0AAF809481B
:1011B00000F088F805462946064800F0E7F801A83F
:1011C00009B030BD00BF05A0FAE7000000080140EB
:1011D000003801402800002025732563000000002E
:1011E0000FB41CB5074B06AA7B44694600900598CE
:1011F00000F05FF90020694600F06EF91CBC5DF854
:1012000014FB0000ED0200002DE9F04104460E46FB
:1012100000200AE0E1682046884738B3252806D038
:10122000D4E901219047206A401C2062F2E7E1687E
:10123000204600278847050018D0A5F1410019284D
:1012400002D820354FF400673246294620462760F1
:10125000FEF786FF40B1012804D0F61D26F00706F0
:101260000836D7E7361DD5E72846D9E7206ABDE816
:10127000F08170B505460C46012A05D02868800625
:1012800000D5EA69002302E0012305E05B1C9342DC
:1012900002D2E05C0028F9D1A869E618C01AA8615A
:1012A000286A184428622846AFF3008004E0D5E994
:1012B000012114F8010B9047B442F8D32846AFF34C
:1012C000008070BD10B5431C02E010F8011B71B125
:1012D0008107FAD14FF0013202C88C1A8C4314EA0C
:1012E000C211F9D0C01A0A0603D0C01E10BDC01A20
:1012F00010BD0A0401D0801E10BD0902FCD0401EA2
:1013000010BD032A40F2308010F0030C00F015806D
:1013100011F8013BBCF1020F624498BF11F801CBF8
:1013200000F8013B38BF11F8013BA2F1040298BF5D
:1013300000F801CB38BF00F8013B11F0030300F0C7
:10134000E680083AC0F0088051F8043B083A51F8AA
:1013500004CBA0E80810F5E7121D5CBF51F8043B70
:1013600040F8043BAFF30080D20724BF11F8013BE3
:1013700011F801CB48BF11F8012B24BF00F8013B45
:1013800000F801CB48BF00F8012B70474FF0000276
:101390000429C0F0128010F0030C00F01B80CCF187
:1013A000040CBCF1020F18BF00F8012BA8BF20F8F5
:1013B000022BA1EB0C0100F00DB85FEAC17C24BF49
:1013C00000F8012B00F8012B48BF00F8012B7047F3
:1013D0004FF0000200B5134694469646203922BFCE
:1013E000A0E80C50A0E80C50B1F12001BFF4F7AF19
:1013F000090728BFA0E80C5048BF0CC05DF804EBFB
:10140000890028BF40F8042B08BF704748BF20F868
:10141000022B11F0804F18BF00F8012B704700001D
:101420004FF0013C50F8042B51F8043B9A4221D173
:10143000A2EB0C03934313EACC1317D150F8042BFF
:1014400051F8043B9A4215D1A2EB0C03934313EAE3
:10145000CC130BD150F8042B51F8043B9A4209D11C
:10146000A2EB0C03934313EACC13DBD04FF0000044
:10147000704700BFD01A01BAB1FA81F101F018012A
:1014800022FA01F0CB40C1F12001DBB2C0B2C01A98
:101490002CFA01F3D11A914311EAC311E6D1704736
:1014A000704770477047000001694A1C0261087864
:1014B000704700B58FB0CDE9013100210591054994
:1014C0007944CDE9031011466846FFF79DFE0FB041
:1014D00000BD0000E5FFFFFF0A6802F8010B0A608B
:1014E000704710B5436913B1AFF3008001E0FFF717
:1014F000C0FE012010BD126800F124010A70002214
:101500004A700122EDE711684FF0FF32E9E710B5AC
:10151000203AC0F00B80B1E81850203AA0E81850EB
:10152000B1E81850A0E81850BFF4F5AF5FEA027CAC
:1015300024BFB1E81850A0E8185044BF18C918C01B
:10154000BDE810405FEA827C24BF51F8043B40F8BC
:10155000043B08BF7047D20728BF31F8023B48BFA1
:1015600011F8012B28BF20F8023B48BF00F8012BDF
:101570007047754600F028F8AE46050069465346A8
:1015800020F00700854618B020B5FEF715FEBDE82F
:1015900020404FF000064FF000074FF000084FF0DA
:1015A000000B21F00701AC46ACE8C009ACE8C0096B
:1015B000ACE8C009ACE8C0098D4670470446AFF3FB
:1015C00000802046FEF7E3FD0048704748000020F9
:1015D000004870474C00002001491820ABBEFEE7D0
:1015E00026000200704710B5FFF7F2FF4FF0000130
:1015F000016010BD14160008000000202800000043
:10160000280100083C160008280000208006000081
:101610004401000800A24A0400000000000000008D
:101620000102030406070809000000000102030488
:0C16300001020304060708090204060872
:040000050800019D51
:00000001FF
